:020000040000FA
:060000000A128A11FC2F18
:100E380083160313081488140800700C8312031314
:100E4800031C8813031888170800700C83120313F7
:100E5800031C0813031808170800700C83120313E7
:100E6800031C8812031888160800831603138812B7
:100E780008138813831203138812081388130800B1
:100E88008312031308080139F200F3017208F00015
:100E98007308F1004F2F080083120313080C01395F
:100EA800F200F3017208F0007308F1005B2F0800EC
:100EB80083120313080D080D0139F200F3017208BB
:100EC800F0007308F100682F08000A128A11392708
:100ED8000A128A110A128A111C270A128A11742FFF
:100EE8000A128A1150270A128A1170037104031D0D
:100EF8007E2F7F2FC82F0A128A115C270A128A11A7
:100F080070087104031D892F8A2FC82F0130F00043
:100F18000030F1000A128A1121270A128A110130C1
:100F2800F0000030F1000A128A1129270A128A11EA
:100F38000B30F6002630F5005D30F400F40BA22FDC
:100F4800F50BA22FF60BA22FA92F0030F000F1000D
:100F58000A128A1129270A128A110630F60013305C
:100F6800F500AD30F400F40BB72FF50BB72FF60BE7
:100F7800B72FBE2F0130F0000030F1000A128A119D
:100F880031270A128A11C82F0A128A1144270A1215
:100F98008A1170037104031DD22FD32F742F0A12E4
:100FA8008A115C270A128A1170037104031DDD2F50
:100FB800DE2F742F0030F000F1000A128A11212769
:100FC8000A128A110030F000F1000A128A1129274A
:100FD8000A128A110030F000F1000A128A11312732
:100FE8000A128A11742F742F742F0A128A1100287A
:080FF80083010A128A11692F1E
:04400E00D4E0FFFFFC
:00000001FF
